:1000000000308A00EA2800008316061383120613C4
:10001000831686128312861683160612831206161C
:1000200083168615831286191D280A30F800C62803
:10003000831686158312861D1828831606158312CB
:1000400006192A280730F800C628831606158312D9
:10005000061D252883168614831286183728043037
:10006000F800C628831686148312861C322883164D
:1000700006148312061844280130F800C628831697
:1000800006148312061C3F288316061383120617D4
:1000900083168612831286128316061283120616A0
:1000A00083168615831286195D280030F800C6284D
:1000B000831686158312861D58288316061583120B
:1000C00006196A280830F800C62883160615831218
:1000D000061D652883168614831286187728053036
:1000E000F800C628831686148312861C722883168D
:1000F00006148312061884280230F800C6288316D6
:1001000006148312061C7F28831606138312061713
:10011000831686128312861683160612831206121F
:1001200083168615831286199D280B30F800C62881
:10013000831686158312861D98288316061583124A
:100140000619AA280930F800C62883160615831256
:10015000061DA5288316861483128618B728063034
:10016000F800C628831686148312861CB2288316CC
:10017000061483120618C4280330F800C628831614
:1001800006148312061CBF28FF30F8008A110A12D9
:100190001D2920302F07840083130008B000831628
:1001A000880183123008880008002F3084008313F0
:1001B00000080319E9280130F800F701F70BDE28E1
:1001C000F80BDD284A30F700F70BE428E728800B0E
:1001D000DB28080003081F398300FF30AD008316B9
:1001E0001F149F141F159F118313FC308312A0004E
:1001F0006030A100DA30A200F230A3006630A40023
:10020000B630A500BE30A600E030A700FE30A80042
:10021000F630A900C430AA003830AB00AC01003081
:10022000831688000F308600003087008312AD00EF
:10023000831688018312880104287808AE002E0FE7
:1002400028290C30AF00C9200A30AF00D5202E2954
:100250002E08AF00C9200A30AF00D5201C2963004A
:02400E00313F40
:00000001FF
;PIC16F877
;CRC=12B6  CREATED="12-set-21 11:32"
